:100000000C942A000C9447000C9447000C94470071
:100010000C9454240C9427240C9447000C94BA0C90
:100020000C9447000C9447000C9447000C94470034
:100030000C9447000C9447000C9447000C94470024
:100040000C94DB290C9447000C9447000C94470057
:100050000C94470011241FBECFE5D8E0DEBFCDBF12
:1000600012E0A0E6B0E0E8E1F7E602C005900D92EC
:10007000AC34B107D9F716E0ACE4B2E001C01D9290
:10008000AC3AB107E1F70E9414330C948A330C9414
:100090000000EF92FF920F931F937B018C0120E0F1
:1000A00030E040E05FE40E94F50388238CF0C80153
:1000B000B70120E030E040E05FE40E94C1010E940F
:1000C00055049B01AC01205030404040504806C0D0
:1000D000C801B7010E9455049B01AC01B901CA01D6
:1000E0001F910F91FF90EF900895A0E0B0E0EBE733
:1000F000F0E00C944133DC012B01FA019C91923029
:1001000008F439C1EB018881823008F433C194309E
:1001100069F4843009F02FC111969C91119789815F
:10012000981709F428C1A3EEB0E025C1843009F482
:1001300021C18230A9F4923009F01DC19A01AD01AC
:1001400088E0EA010990AE01E90109929E0181501F
:10015000C1F7E201898111969C918923818308C1AD
:10016000923009F407C112962D903C901397EB0141
:100170008A819B811496AD90BD90CD90DC901797AD
:10018000EC80FD800E811F819101281B390BB90184
:1001900037FF04C066277727621B730B6032710537
:1001A0000CF061C0121613066CF537014801062EDB
:1001B00004C096948794779467940A94D2F721E0C8
:1001C00030E040E050E004C0220F331F441F551FB1
:1001D0006A95D2F721503040404050402E213F21B7
:1001E00040235123211531054105510521F021E01E
:1001F00030E040E050E079018A01E628F72808293C
:1002000019293CC0232BD1F1260E371E350146019A
:10021000062E04C096948794779467940A94D2F734
:1002200021E030E040E050E004C0220F331F441FC3
:10023000551F6A95D2F721503040404050402A2146
:100240003B214C215D21211531054105510521F04E
:1002500021E030E040E050E059016A01A628B728CB
:10026000C828D9280BC0821593052CF01C01AA249C
:10027000BB24650103C0EE24FF24870111969C91E5
:10028000D20111968C91981709F445C0992339F041
:10029000A80197012A193B094C095D0906C0A6016E
:1002A00095012E193F09400B510B57FD08C01182D3
:1002B0003382228224833583468357831DC081E0A5
:1002C00081833382228288279927DC01821B930B4A
:1002D000A40BB50B84839583A683B7830DC0220F2F
:1002E000331F441F551F24833583468357838281E0
:1002F000938101979383828324813581468157813D
:10030000DA01C9010197A109B1098F5F9F4FAF4F72
:10031000BF4328F30BC0918333822282EA0CFB1C7B
:100320000C1D1D1DE482F5820683178383E0808304
:10033000248135814681578157FF1AC0C901AA27F8
:1003400097FDA095BA2F81709070A070B0705695EF
:10035000479537952795822B932BA42BB52B848318
:100360009583A683B7838281938101969383828349
:10037000DF0101C0D201CD01CDB7DEB7E2E10C94BF
:100380005D33A0E2B0E0E7ECF1E00C944D3369831B
:100390007A838B839C832D833E834F835887E9E048
:1003A000EE2EF12CEC0EFD1ECE010196B7010E943F
:1003B00046068E010F5E1F4FCE010596B8010E94C2
:1003C00046068A8991E089278A8BC701B801AE0168
:1003D000475E5F4F0E9475000E947105A096E6E09F
:1003E0000C946933A0E2B0E0E8EFF1E00C944D33F7
:1003F00069837A838B839C832D833E834F835887C5
:10040000F9E0EF2EF12CEC0EFD1ECE010196B701A6
:100410000E9446068E010F5E1F4FCE010596B80161
:100420000E944606C701B801AE01475E5F4F0E94B9
:1004300075000E947105A096E6E00C946933A0E275
:10044000B0E0E5E2F2E00C94413369837A838B8378
:100450009C832D833E834F835887CE010196BE0136
:10046000675F7F4F0E944606CE010596BE016F5E14
:100470007F4F0E9446069985923088F089898230A4
:10048000C8F0943019F4823051F404C0843029F457
:10049000923081F483EE90E0C6C0923049F420E0BF
:1004A0009A858A89981321E02A87CE010996BBC0D4
:1004B000823049F420E09A858A89981321E02A8BBA
:1004C000CE014196B0C02D843E844F8458886D88FB
:1004D0007E888F88988CEE24FF248701AA24BB2471
:1004E000650140E050E060E070E0E0E0F0E0C10174
:1004F00081709070892BE9F0E60CF71C081D191D1E
:100500009A01AB012A0D3B1D4C1D5D1D80E090E062
:10051000A0E0B0E0E614F7040805190520F481E036
:1005200090E0A0E0B0E0BA01A901480F591F6A1F8E
:100530007B1FAA0CBB1CCC1CDD1C97FE08C081E0F5
:1005400090E0A0E0B0E0A82AB92ACA2ADB2A3196B6
:10055000E032F10549F0660C771C881C991C569412
:10056000479437942794C3CFFA85EA892B893C892D
:100570008B859C85280F391F2E5F3F4F17C0CA01FE
:1005800081709070892B61F016950795F794E79428
:1005900080E090E0A0E0B0E8E82AF92A0A2B1B2BC3
:1005A00076956795579547952F5F3F4F77FDE7CF36
:1005B0000CC0440F551F661F771F17FD4160EE0CDE
:1005C000FF1C001F111F21503040403090E05907A0
:1005D00090E0690790E4790760F32B8F3C8FDB0193
:1005E000CA018F779070A070B07080349105A1051A
:1005F000B10561F447FD0AC0E114F10401051105DC
:1006000029F0405C5F4F6F4F7F4F40781A8EFE1786
:1006100011F081E08A8F4D8F5E8F6F8F78A383E01A
:10062000898FCE0149960E947105A096E2E10C9453
:100630005D33A8E1B0E0EFE1F3E00C944933698366
:100640007A838B839C832D833E834F835887B9E0C5
:10065000EB2EF12CEC0EFD1ECE010196B7010E948F
:1006600046068E010F5E1F4FCE010596B8010E940F
:1006700046062985223008F47EC03989323010F4CC
:10068000B8017CC08A859A8989278A87243011F02D
:10069000223031F4231709F06EC063EE70E06EC0B3
:1006A000343039F41D861E861F86188A1C861B86E8
:1006B00004C0323021F484E08987B7015FC02B8504
:1006C0003C858B899C89281B390B3C872B87ED84C3
:1006D000FE840F851889AD88BE88CF88D88CEA142F
:1006E000FB040C051D0540F4EE0CFF1C001F111F40
:1006F000215030403C872B8720E030E040E050E044
:1007000080E090E0A0E0B0E460E070E0EA14FB0478
:100710000C051D0540F0282B392B4A2B5B2BEA18C2
:10072000FB080C091D09B695A79597958795EE0CC2
:10073000FF1C001F111F6F5F7F4F6F31710531F775
:10074000DA01C9018F779070A070B0708034910584
:10075000A105B10561F427FD0AC0E114F10401050A
:10076000110529F0205C3F4F4F4F5F4F20782D87B8
:100770003E874F87588BBE01675F7F4FCB010E943A
:1007800071056896EAE00C946533A8E1B0E0EBEC03
:10079000F3E00C944D3369837A838B839C832D83A0
:1007A0003E834F83588789E0E82EF12CEC0EFD1E26
:1007B000CE010196B7010E9446068E010F5E1F4FC3
:1007C000CE010596B8010E9446068985823040F028
:1007D0008989823028F0C701B8010E94BE0601C095
:1007E0008FEF6896E6E00C946933A8E1B0E0EBEF98
:1007F000F3E00C944D3369837A838B839C832D8340
:100800003E834F83588789E0E82EF12CEC0EFD1EC5
:10081000CE010196B7010E9446068E010F5E1F4F62
:10082000CE010596B8010E9446068985823040F0C7
:100830008989823028F0C701B8010E94BE0601C034
:100840008FEF6896E6E00C946933A8E1B0E0EBE244
:10085000F4E00C944D3369837A838B839C832D83DE
:100860003E834F83588789E0E82EF12CEC0EFD1E65
:10087000CE010196B7010E9446068E010F5E1F4F02
:10088000CE010596B8010E9446068985823040F067
:100890008989823028F0C701B8010E94BE0601C0D4
:1008A00081E06896E6E00C946933ACE0B0E0EBE5FB
:1008B000F4E00C94513369837A838B839C83CE015B
:1008C0000196BE016B5F7F4F0E9446068D8182308C
:1008D00061F1823050F1843021F48E81882351F10E
:1008E0002EC02F81388537FD20C06E812F31310514
:1008F0001CF06623F9F023C08EE190E0821B930B7D
:1009000029853A854B855C8504C056954795379572
:1009100027958A95D2F76623B1F05095409530958A
:1009200021953F4F4F4F5F4F0EC020E030E040E039
:1009300050E009C02FEF3FEF4FEF5FE704C020E02A
:1009400030E040E050E8B901CA012C96E2E00C9496
:100950006D33A8E0B0E0EFEAF4E00C9449337B019A
:100960008C01611571058105910519F482E0898377
:1009700060C083E089838EE1C82ED12CDC82CB82DB
:10098000ED82FE820F831887C801B7010E942205FD
:10099000FC013197F7FF3BC0222733272E1B3F0B6B
:1009A00057016801022E04C0D694C794B794A79447
:1009B0000A94D2F740E050E060E070E081E090E01F
:1009C000A0E0B0E004C0880F991FAA1FBB1F2A95A2
:1009D000D2F70197A109B1098E219F21A023B1234C
:1009E0000097A105B10521F041E050E060E070E022
:1009F0004A295B296C297D294D835E836F83788723
:100A00008EE190E08E1B9F0B9C838B8312C03097EE
:100A100081F00E2E04C0EE0CFF1C001F111F0A9463
:100A2000D2F7ED82FE820F831887CE1ADF0ADC82AE
:100A3000CB821A82CE0101960E9471052896EAE0C7
:100A40000C946533EF92FF920F931F937B018C01FF
:100A500080E0E81680E0F80681E0080780E01807EB
:100A600088F48FEFE816F1040105110531F028F044
:100A700088E090E0A0E0B0E017C080E090E0A0E067
:100A8000B0E012C080E0E81680E0F80680E00807D9
:100A900081E0180728F088E190E0A0E0B0E004C011
:100AA00080E190E0A0E0B0E020E230E040E050E003
:100AB000281B390B4A0B5B0B04C016950795F7945E
:100AC000E7948A95D2F7F701E551FF4F8081281B03
:100AD000310941095109C9011F910F91FF90EF9010
:100AE0000895DF92EF92FF920F931F93FC01E48031
:100AF000F58006811781D1808081823048F480E0C2
:100B000090E0A0E1B0E0E82AF92A0A2B1B2BA5C04F
:100B1000843009F49FC0823021F4EE24FF24870141
:100B200005C0E114F1040105110519F4E0E0F0E05D
:100B300096C0628173819FEF623879070CF05BC0C9
:100B400022E83FEF261B370B2A3131052CF020E03D
:100B500030E040E050E02AC0B801A701022E04C0F6
:100B600076956795579547950A94D2F781E090E07E
:100B7000A0E0B0E004C0880F991FAA1FBB1F2A95F0
:100B8000D2F70197A109B1098E219F21A023B1239A
:100B90000097A105B10521F081E090E0A0E0B0E070
:100BA0009A01AB01282B392B4A2B5B2BDA01C901A7
:100BB0008F779070A070B07080349105A105B10559
:100BC00039F427FF09C0205C3F4F4F4F5F4F04C0EF
:100BD000215C3F4F4F4F5F4FE0E0F0E02030A0E05E
:100BE0003A07A0E04A07A0E45A0710F0E1E0F0E07D
:100BF00079018A0127C06038710564F5FB01E1586D
:100C0000FF4FD801C7018F779070A070B07080340B
:100C10009105A105B10539F4E7FE0DC080E490E02F
:100C2000A0E0B0E004C08FE390E0A0E0B0E0E80E08
:100C3000F91E0A1F1B1F17FF05C016950795F7948D
:100C4000E794319687E016950795F794E7948A958F
:100C5000D1F705C0EE24FF248701EFEFF0E06E2FFF
:100C6000679566276795902F9F77D794DD24D79453
:100C70008E2F8695492F462B582F5D29B701CA0123
:100C80001F910F91FF90EF90DF900895FC01DB0121
:100C9000408151812281622F6F7770E0221F2227CD
:100CA000221F9381892F880F822B282F30E0991FD4
:100CB0009927991F11969C93119721153105A9F534
:100CC000411551056105710511F482E037C082E8D4
:100CD0009FEF13969C938E9312979A01AB0167E056
:100CE000220F331F441F551F6A95D1F783E08C9361
:100CF0000DC0220F331F441F551F12968D919C91DA
:100D00001397019713969C938E931297203080E04F
:100D1000380780E0480780E4580758F314962D936D
:100D20003D934D935C93179708952F3F310579F4C8
:100D3000411551056105710519F484E08C930895FE
:100D400064FF03C081E08C9312C01C9210C02F5727
:100D5000304013963C932E93129783E08C9387E058
:100D6000440F551F661F771F8A95D1F7706414963C
:100D70004D935D936D937C93179708951F93DC01BA
:100D8000FB019C91923008F447C08081823008F4C6
:100D900043C0943051F411961C91843099F58181AF
:100DA000682F70E0611B71093FC0843021F09230E0
:100DB00031F48230B9F18181882389F12DC01196F7
:100DC0001C9111978230F1F081811817D9F4129695
:100DD0002D913C911397828193818217930794F010
:100DE00028173907BCF014968D919D910D90BC91F8
:100DF000A02D2481358146815781281739074A075C
:100E00005B0718F4112341F00AC082179307A40767
:100E1000B50740F4112319F061E070E005C06FEFF1
:100E20007FEF02C060E070E0CB011F910895DF9377
:100E3000CF93CDB7DEB72E970FB6F894DEBF0FBEB7
:100E4000CDBF9E878D871E821D820E9423188091B0
:100E50004C02882329F40E947E0881E080934C0292
:100E60008D859E85009751F08091490290914A02AC
:100E70002D853E85820F931F9E878D878D859E854C
:100E8000009709F4AFC08D859E8523E0873E9207C9
:100E900008F0A8C085E396E09A8789878091350697
:100EA000909136069C878B870AC08B859C859A8794
:100EB0008987EB85FC85808191819C878B87EB8579
:100EC000FC85228133818D859E852817390730F472
:100ED000EB85FC8580819181009739F78B859C8516
:100EE00046E08933940709F47DC0E985FA852081BD
:100EF00031818091490290914A02820F931F9E8313
:100F00008D83EB85FC8580819181E985FA859183CC
:100F10008083EB85FC85228133818D859E85281B0E
:100F2000390B8091490290914A02880F991F8217CC
:100F3000930708F047C02B853C858D859E85820FE1
:100F4000931F98878F83EB85FC85228133818D8564
:100F50009E85A901481B590BCA01EF81F88593832F
:100F60008283EB85FC858D859E8593838283EF81CB
:100F7000F885828193819A83898385E396E09C83B7
:100F80008B8306C0EB81FC81808191819C838B8364
:100F9000EB81FC810190F081E02D228133818981F8
:100FA0009A812817390770F3EB81FC818081918148
:100FB000EF81F88591838083EB81FC818F81988517
:100FC000918380832091EB013091EC01EB85FC85CE
:100FD00082819381A901481B590BCA019093EC01AE
:100FE0008093EB010E942F188D819E812E960FB663
:100FF000F894DEBF0FBECDBFCF91DF910895DF9390
:10100000CF93CDB7DEB72A970FB6F894DEBF0FBEE9
:10101000CDBF9A87898789859A8598878F838985A7
:101020009A85009709F44FC08091490290914A0235
:1010300022273327281B390B8F819885820F931F16
:1010400098878F838F8198859E838D830E94231834
:10105000ED81FE81828193819A83898385E396E085
:101060009C838B8306C0EB81FC81808191819C8372
:101070008B83EB81FC810190F081E02D2281338113
:1010800089819A812817390770F3EB81FC8180816F
:101090009181ED81FE8191838083EB81FC818D8143
:1010A0009E8191838083ED81FE81228133818091B5
:1010B000EB019091EC01820F931F9093EC018093D0
:1010C000EB010E942F182A960FB6F894DEBF0FBED0
:1010D000CDBFCF91DF910895DF93CF93CDB7DEB72A
:1010E0008091EB019091EC01CF91DF910895DF9316
:1010F000CF93CDB7DEB7CF91DF910895DF93CF9334
:1011000000D000D0CDB7DEB78EE492E09A83898319
:1011100089819A819093360680933506109238061D
:101120001092370687EE93E090933C0680933B063F
:1011300010923A061092390689819A819C838B839A
:10114000EB81FC8187EE93E093838283EB81FC81CA
:1011500089E396E0918380830F900F900F900F901A
:10116000CF91DF910895DF93CF9300D0CDB7DEB755
:101170009A83898389819A810396E981FA8192838E
:101180008183E981FA818FEF9FEF94838383898143
:101190009A810396E981FA819683858389819A8170
:1011A0000396E981FA8190878783E981FA81108229
:1011B0000F900F90CF91DF910895DF93CF9300D0E0
:1011C000CDB7DEB79A838983E981FA8111861086CB
:1011D0000F900F90CF91DF910895DF93CF9300D0C0
:1011E00000D000D0CDB7DEB79C838B837E836D8328
:1011F000EB81FC81818192819A838983ED81FE81DB
:1012000089819A8193838283E981FA81848195819E
:10121000ED81FE8195838483E981FA810480F581E3
:10122000E02D8D819E8193838283E981FA818D8176
:101230009E8195838483ED81FE818B819C81918742
:101240008087EB81FC8180818F5FEB81FC818083D3
:1012500026960FB6F894DEBF0FBECDBFCF91DF91BB
:101260000895DF93CF93CDB7DEB728970FB6F894E4
:10127000DEBF0FBECDBF9E838D8378876F83EF81E6
:10128000F885808191819A83898389819A812FEF62
:101290008F3F920739F4ED81FE81878190859C8391
:1012A0008B8318C08D819E8103969C838B8306C09F
:1012B000EB81FC81828193819C838B83EB81FC8118
:1012C0000280F381E02D2081318189819A8182170A
:1012D000930770F7EB81FC8182819381EF81F88520
:1012E00093838283EF81F8850280F381E02D8F81E3
:1012F000988595838483EF81F8858B819C81958384
:101300008483EB81FC818F81988593838283EF8135
:10131000F8858D819E8191878087ED81FE81808116
:101320008F5FED81FE81808328960FB6F894DEBF33
:101330000FBECDBFCF91DF910895DF93CF9300D043
:1013400000D0CDB7DEB79C838B83EB81FC81808599
:1013500091859A838983EB81FC81A281B381EB81A2
:10136000FC818481958115969C938E931497EB81D3
:10137000FC81A481B581EB81FC81828193811396EC
:101380009C938E931297E981FA81218132818B811E
:101390009C812817390741F4EB81FC818481958178
:1013A000E981FA8192838183EB81FC811186108629
:1013B000E981FA8180818150E981FA818083E98124
:1013C000FA8180810F900F900F900F90CF91DF9155
:1013D0000895DF93CF93CDB7DEB728970FB6F89473
:1013E000DEBF0FBECDBF9C838B837E836D8358870A
:1013F0004F83EB81FC8181E180838B819C8101970C
:101400009C838B83EB81FC8182E280838B819C8136
:1014100001979C838B83EB81FC8183E380838B81A9
:101420009C8101979C838B838D819E819A83898384
:101430008981EB81FC8180838B819C8101979C83D6
:101440008B8389819A81892F99279A8389838981BE
:10145000EB81FC8180838B819C8101979C838B83B2
:10146000EB81FC8110828B819C8101979C838B8313
:10147000EB81FC8180E880838B819C8101979C8338
:101480008B83EB81FC8110828B819C8101979C83F3
:101490008B83EB81FC8182E080838B819C8101972F
:1014A0009C838B83EB81FC8183E080838B819C8197
:1014B00001979C838B83EB81FC8184E080838B810B
:1014C0009C8101979C838B83EB81FC8185E08083E9
:1014D0008B819C8101979C838B83EB81FC8186E0CF
:1014E00080838B819C8101979C838B83EB81FC8122
:1014F00087E080838B819C8101979C838B83EB8128
:10150000FC8188E080838B819C8101979C838B8305
:10151000EB81FC8189E080838B819C8101979C8396
:101520008B83EB81FC8180E180838B819C8101979F
:101530009C838B83EB81FC8181E180838B819C8107
:1015400001979C838B83EB81FC8182E180838B817B
:101550009C8101979C838B83EB81FC8183E1808359
:101560008B819C8101979C838B83EB81FC8184E13F
:1015700080838B819C8101979C838B83EB81FC8191
:1015800085E180838B819C8101979C838B83EB8198
:10159000FC8186E180838B819C8101979C838B8376
:1015A000EB81FC8187E180838B819C8101979C8307
:1015B0008B83EB81FC8188E180838B819C81019707
:1015C0009C838B83EB81FC8189E180838B819C816F
:1015D00001979C838B83EB81FC8180E280838B81EC
:1015E0009C8101979C838B83EB81FC8181E28083CA
:1015F0008B819C8101979C838B83EB81FC8182E2B0
:1016000080838B819C8101979C838B83EB81FC8100
:1016100083E280838B819C8101979C838B838F8164
:1016200098859A8389838981EB81FC8180838B8172
:101630009C8101979C838B8389819A81892F99272B
:101640009A8389838981EB81FC8180838B819C8152
:1016500001979C838B83EB81FC8186E280838B8165
:101660009C8101979C838B83EB81FC8187E2808343
:101670008B819C8101979C838B83EB81FC8188E229
:1016800080838B819C8101979C838B83EB81FC8180
:1016900089E280838B819C8101979C838B83EB8182
:1016A000FC8180E380838B819C8101979C838B8369
:1016B000EB81FC8181E380838B819C8101979C83FA
:1016C0008B838B819C8128960FB6F894DEBF0FBE6A
:1016D000CDBFCF91DF910895DF93CF93CDB7DEB724
:1016E0000E945E0CA0913D06B0913E06CD91CDBF0B
:1016F000DD91DEBFFF91EF91DF91CF91BF91AF916F
:101700009F918F917F916F915F914F913F912F9119
:101710001F910F91FF90EF90DF90CF90BF90AF900F
:101720009F908F907F906F905F904F903F902F9001
:101730001F900F900FBE0F90089581E0CF91DF9121
:101740000895DF93CF93CDB7DEB7CF91DF910895A2
:101750000F920FB6F8940F921F9211242F923F927E
:101760004F925F926F927F928F929F92AF92BF92B1
:10177000CF92DF92EF92FF920F931F932F933F939D
:101780004F935F936F937F938F939F93AF93BF9389
:10179000CF93DF93EF93FF93A0913D06B0913E0668
:1017A0000DB60D920EB60D920E94041AA0913D0640
:1017B000B0913E06CD91CDBFDD91DEBFFF91EF919F
:1017C000DF91CF91BF91AF919F918F917F916F9159
:1017D0005F914F913F912F911F910F91FF90EF904B
:1017E000DF90CF90BF90AF909F908F907F906F9041
:1017F0005F904F903F902F901F900F900FBE0F90D3
:1018000008950F920FB6F8940F921F9211242F9201
:101810003F924F925F926F927F928F929F92AF9280
:10182000BF92CF92DF92EF92FF920F931F932F936D
:101830003F934F935F936F937F938F939F93AF9358
:10184000BF93CF93DF93EF93FF93A0913D06B091A9
:101850003E060DB60D920EB60D920E941F198823FA
:1018600011F00E94041AA0913D06B0913E06CD9160
:10187000CDBFDD91DEBFFF91EF91DF91CF91BF91A1
:10188000AF919F918F917F916F915F914F913F9118
:101890002F911F910F91FF90EF90DF90CF90BF900D
:1018A000AF909F908F907F906F905F904F903F9000
:1018B0002F901F900F900FBE0F900895DF93CF933E
:1018C00000D000D000D0CDB7DEB780E89EE3A0E026
:1018D000B0E08B839C83AD83BE838B819C81AD8183
:1018E000BE81689415F8B695A79597958795169437
:1018F000D1F78B839C83AD83BE838B819C81AD812B
:10190000BE810197A109B1098B839C83AD83BE83FE
:101910008B8189838B819C81AD81BE81892F9A2F98
:10192000AB2FBB278B839C83AD83BE838B818A8344
:10193000EBE4F0E08A818083EAE4F0E0898180834F
:101940008BE08983EEE4F0E089818083E9E5F0E0D3
:1019500080818983898180618983E9E5F0E08981DB
:10196000808326960FB6F894DEBF0FBECDBFCF9111
:10197000DF9108950E94010C1895DF93CF9300D05A
:1019800000D00F92CDB7DEB79C838B836D838B81A4
:101990009C819A8389830FB6F8940F92E981FA812A
:1019A00040815181E981FA81838D282F30E0E981DE
:1019B000FA81848D882F90E0BC01269FC001279F6B
:1019C000900D369F900D1124840F951FE981FA81A7
:1019D00093838283E981FA81128EE981FA81808181
:1019E0009181E981FA8195838483E981FA8140813B
:1019F0005181E981FA81838D882F90E09C012150EB
:101A00003040E981FA81848D882F90E0BC01269FC7
:101A1000C001279F900D369F900D1124840F951FB4
:101A2000E981FA8197838683E981FA818FEF858F37
:101A3000E981FA818FEF868F8D81882379F4E9819E
:101A4000FA8180858823A1F089819A8108960E9475
:101A5000C31A882369F00E94A80B0AC089819A8161
:101A600008960E94B30889819A8141960E94B30822
:101A70000F900FBE81E00F900F900F900F900F907E
:101A8000CF91DF9108950F931F93DF93CF93CDB73D
:101A9000DEB729970FB6F894DEBF0FBECDBF8F8398
:101AA000688749878885882319F41C821B8210C0A7
:101AB0008F81282F30E08885882F90E0AC01249F0B
:101AC000C001259F900D349F900D11249C838B8322
:101AD0008B819C814F960E9417079E838D838D81F9
:101AE0009E81009781F08D819E814F969A83898394
:101AF00029813A81ED81FE818F816885A90129853F
:101B00008F010E94900D8D819E8129960FB6F894C9
:101B1000DEBF0FBECDBFCF91DF911F910F91089512
:101B20000F931F93DF93CF93CDB7DEB727970FB6F1
:101B3000F894DEBF0FBECDBF89836A835C834B837D
:101B40002D831F830E838A81882339F48E819F81A0
:101B5000EE81FF819183808306C08B819C81EE8121
:101B6000FF8191838083EE81FF818981838FEE8164
:101B7000FF818A81848F8E819F8161E00E94BD0CEC
:101B800027960FB6F894DEBF0FBECDBFCF91DF9181
:101B90001F910F910895DF93CF9300D0CDB7DEB79B
:101BA0009A83898389819A810097A1F0E981FA81DA
:101BB00013821282E981FA8111821082E981FA810D
:101BC000168289819A8160E070E040E050E020E078
:101BD0000E940F0E0F900F90CF91DF910895DF9329
:101BE000CF9300D000D00F92CDB7DEB78D8381E0C8
:101BF0008A8319828A8169814D810E94430D9C8369
:101C00008B838B819C810E94CB0D8B819C810F905B
:101C10000F900F900F900F90CF91DF910895DF9369
:101C2000CF93CDB7DEB72F970FB6F894DEBF0FBEB8
:101C3000CDBF998788877B876A875D874C872E878A
:101C40001C82888599859A8389830FB6F8940F92B0
:101C5000E981FA81928DE981FA81838D981718F0D4
:101C60008E85823011F589819A812A853B85B9015B
:101C70004E850E9443118B83E981FA8181898823F3
:101C800051F089819A8141960E94C31A882341F0BC
:101C90000E94A80B05C08B81882311F00E94A80B1D
:101CA0000F900FBE81E08F875CC08C859D8500976B
:101CB00021F40F900FBE1F8654C08C81882331F40D
:101CC000CE0105960E94931B81E08C830F900FBE7E
:101CD0000E9423180FB6F8940F92E981FA81858D3E
:101CE0008F3F19F4E981FA81158EE981FA81868D99
:101CF0008F3F19F4E981FA81168E0F900FBECE0145
:101D000005969E01245F3F4FB9010E94AC1B8823BA
:101D100009F589819A810E94CA128823A1F08981DC
:101D20009A8108962C853D85B9010E94711A898196
:101D30009A810E9442120E942F18882309F085CFB1
:101D40000E94A80B82CF89819A810E9442120E9430
:101D50002F187BCF89819A810E9442120E942F18EE
:101D60001F868F852F960FB6F894DEBF0FBECDBFAE
:101D7000CF91DF910895DF93CF93CDB7DEB72C9746
:101D80000FB6F894DEBF0FBECDBF9F838E837987D9
:101D900068875B874A872C878E819F819B838A8394
:101DA0001C82EA81FB81928DEA81FB81838D9817E9
:101DB00018F08C85823061F5EA81FB81868D8983FC
:101DC0008A819B8128853985B9014C850E94431100
:101DD00089818F3FA9F4EA81FB8181898823A9F059
:101DE0008A819B8141960E94C31A882371F08A855B
:101DF0009B85009751F0EA85FB8581E0808305C0D3
:101E000089818F5FEA81FB81868F81E08D8301C0AC
:101E10001D828D812C960FB6F894DEBF0FBECDBF0C
:101E2000CF91DF910895DF93CF93CDB7DEB72A9797
:101E30000FB6F894DEBF0FBECDBF98878F837A8729
:101E400069878F8198859C838B831D82EB81FC81C0
:101E5000828D8A83EB81FC81938D8A81891748F575
:101E6000EB81FC81868D89838A818F5FEB81FC8188
:101E7000828F89818F3FA9F4EB81FC81818988233E
:101E8000A9F08B819C8141960E94C31A882371F02E
:101E900089859A85009751F0E985FA8581E08083EC
:101EA00005C089818F5FEB81FC81868F81E08E8305
:101EB00001C01E828E812A960FB6F894DEBF0FBE37
:101EC000CDBFCF91DF910895DF93CF93CDB7DEB72C
:101ED00061970FB6F894DEBF0FBECDBF9B878A8790
:101EE0007D876C875F874E87288B1E828A859B85BE
:101EF0009B838A830FB6F8940F92EA81FB81828DCF
:101F000089838981882309F449C0EA81FB8186811C
:101F100097819D838C838A819B812C853D85B90126
:101F20000E94FB118889882301F589818150EA810B
:101F3000FB81828FEA81FB8180819181009731F45E
:101F40000E94241EEA81FB8193838283EA81FB81C4
:101F500080858823F1F08A819B8108960E94C31AAC
:101F60008823B9F00E94A80B14C0EA81FB818C8100
:101F70009D8197838683EA81FB818189882349F04B
:101F80008A819B8141960E94C31A882311F00E9486
:101F9000A80B0F900FBE81E0898B74C08E859F8542
:101FA000009721F40F900FBE198A6CC08E81882390
:101FB00031F4CE0107960E94931B81E08E830F902F
:101FC0000FBE0E9423180FB6F8940F92EA81FB818E
:101FD000858D8F3F19F4EA81FB81158EEA81FB81A3
:101FE000868D8F3F19F4EA81FB81168E0F900FBE0C
:101FF000CE0107969E01225F3F4FB9010E94AC1BA4
:10200000882391F58A819B810E949512882329F16A
:10201000EA81FB8180819181009759F40FB6F89491
:102020000F92EA81FB81828193810E94001D0F90B3
:102030000FBE8A819B8141962E853F85B9010E9402
:10204000711A8A819B810E9442120E942F18882354
:1020500009F050CF0E94A80B4DCF8A819B810E942E
:1020600042120E942F1846CF8A819B810E94421201
:102070000E942F188A819B810E949512882309F45F
:1020800039CF198A898961960FB6F894DEBF0FBEE1
:10209000CDBFCF91DF910895DF93CF93CDB7DEB75A
:1020A0002C970FB6F894DEBF0FBECDBF98878F83F5
:1020B0007A8769875C874B878F8198859C838B8320
:1020C0001D82EB81FC81828D8A838A81882381F144
:1020D000EB81FC81858D89838B819C8129853A8563
:1020E000B9010E94FB118A818150EB81FC81828FB2
:1020F00089818F3FA9F4EB81FC8180858823A9F039
:102100008B819C8108960E94C31A882371F08B856D
:102110009C85009751F0EB85FC8581E0808305C0AC
:1021200089818F5FEB81FC81858F81E08E8301C087
:102130001E828E812C960FB6F894DEBF0FBECDBFE7
:10214000CF91DF910895DF93CF93CDB7DEB72A9774
:102150000FB6F894DEBF0FBECDBF98878F837A8706
:1021600069878F8198859A8389831D82E981FA81A5
:10217000828D8823B1F0E981FA81868197819C83E1
:102180008B8389819A8129853A85B9010E94FB1147
:10219000E981FA818B819C819783868381E08E839C
:1021A00001C01E828E812A960FB6F894DEBF0FBE44
:1021B000CDBFCF91DF910895DF93CF9300D00F92E1
:1021C000CDB7DEB79B838A830FB6F8940F92EA816E
:1021D000FB81828D89830F900FBE89810F900F90B4
:1021E0000F90CF91DF910895DF93CF9300D000D06F
:1021F0000F92CDB7DEB79D838C838C819D819A83AE
:1022000089830FB6F8940F92E981FA81938DE98161
:10221000FA81828D292F281B822F8B830F900FBE6E
:102220008B810F900F900F900F900F90CF91DF91B7
:102230000895DF93CF9300D00F92CDB7DEB79B8385
:102240008A83EA81FB81828D898389810F900F9037
:102250000F90CF91DF910895DF93CF9300D000D0FE
:10226000CDB7DEB79C838B838B819C819A838983D6
:1022700089819A810E94FF070F900F900F900F9015
:10228000CF91DF910895DF93CF93CDB7DEB7279736
:102290000FB6F894DEBF0FBECDBF9C838B837E83C9
:1022A0006D834F831A82EB81FC81828D8983EB8160
:1022B000FC81848D882399F4EB81FC81808191815C
:1022C000009709F089C0EB81FC81828193810E9493
:1022D0008B1D8A83EB81FC81138212827DC08F81EA
:1022E000882399F5EB81FC8164817581EB81FC8108
:1022F000848D482F50E02D813E81CB01B9010E9491
:102300007833EB81FC8124813581EB81FC81848DE4
:10231000882F90E0820F931FEB81FC81958384834B
:10232000EB81FC8124813581EB81FC818281938169
:102330002817390708F450C0EB81FC818081918116
:10234000EB81FC819583848347C0EB81FC816681AE
:102350007781EB81FC81848D482F50E02D813E8177
:10236000CB01B9010E947833EB81FC812681378152
:10237000EB81FC81848D882F90E0909581959F4F13
:10238000820F931FEB81FC8197838683EB81FC8115
:1023900026813781EB81FC81808191812817390763
:1023A00090F4EB81FC8122813381EB81FC81848D6F
:1023B000882F90E0909581959F4F820F931FEB811E
:1023C000FC81978386838F81823031F489818823D1
:1023D00019F089818150898389818F5FEB81FC812C
:1023E000828F8A8127960FB6F894DEBF0FBECDBFCD
:1023F000CF91DF910895DF93CF9300D000D0CDB778
:10240000DEB79A8389837C836B83E981FA81848D2B
:10241000882389F1E981FA8126813781E981FA816E
:10242000848D882F90E0820F931FE981FA81978332
:102430008683E981FA8126813781E981FA81828167
:1024400093812817390740F0E981FA8180819181D1
:10245000E981FA8197838683E981FA8146815781F0
:10246000E981FA81848D282F30E08B819C81BA012B
:10247000A9010E9478330F900F900F900F90CF9189
:10248000DF910895DF93CF9300D000D0CDB7DEB7B2
:102490009C838B830FB6F8940F92EB81FC81868D21
:1024A0008A8311C0EB81FC818189882379F08B813B
:1024B0009C8141960E94C31A882311F00E94191C26
:1024C0008A8181508A838A81181664F3EB81FC81AA
:1024D0008FEF868F0F900FBE0FB6F8940F92EB819F
:1024E000FC81858D898311C0EB81FC8180858823E7
:1024F00079F08B819C8108960E94C31A882311F081
:102500000E94191C8981815089838981181664F37E
:10251000EB81FC818FEF858F0F900FBE0F900F9096
:102520000F900F90CF91DF910895DF93CF9300D05C
:102530000F92CDB7DEB79B838A830FB6F8940F92C4
:10254000EA81FB81828D882319F481E0898301C0AF
:1025500019820F900FBE89810F900F900F90CF912D
:10256000DF910895DF93CF9300D00F92CDB7DEB700
:102570009B838A83EA81FB81828D882319F481E021
:10258000898301C0198289810F900F900F90CF919C
:10259000DF910895DF93CF9300D00F92CDB7DEB7D0
:1025A0009B838A830FB6F8940F92EA81FB81928D08
:1025B000EA81FB81838D981719F481E0898301C03A
:1025C00019820F900FBE89810F900F900F90CF91BD
:1025D000DF910895DF93CF9300D00F92CDB7DEB790
:1025E0009B838A83EA81FB81928DEA81FB81838DC3
:1025F000981719F481E0898301C0198289810F90AD
:102600000F900F90CF91DF9108958F929F92AF928C
:10261000BF92CF92DF92EF92FF920F931F93DF93BF
:10262000CF93CDB7DEB760970FB6F894DEBF0FBE7D
:10263000CDBF9F838E83798768875B874A873D8775
:102640002C870E87F88AEF868A859B850E9417075C
:102650009A83898389819A810097B1F080E390E021
:102660000E9417079D838C838C819D81009739F090
:10267000EC81FD8189819A81908F878B07C0898148
:102680009A810E94FF0702C01D821C828C819D815D
:102690000097E9F08A859B859C0140E050E08E819F
:1026A0009F8168857985EC85FD85AF85B889AC808B
:1026B000BD808F01EE846D01882499240E947D13D2
:1026C0008C819D810E94381481E08B8302C08FEF42
:1026D0008B838B8160960FB6F894DEBF0FBECDBFA3
:1026E000CF91DF911F910F91FF90EF90DF90CF90EE
:1026F000BF90AF909F908F9008958F929F92AF92CE
:10270000BF92CF92DF92EF920F931F93DF93CF93FD
:10271000CDB7DEB764970FB6F894DEBF0FBECDBF5E
:102720009D838C837F836E83288739874A875B8765
:102730001D870C87EE86D88ACF86BA8AA98A9C8A9A
:102740008B8AE989FA892789308D8885998501974F
:10275000820F931F9B838A83198221C08981482F0E
:1027600050E08981282F30E08E819F81FC01E20FAB
:10277000F31F208189899A89840F951FFC0179961E
:1027800020838981282F30E08E819F81FC01E20F18
:10279000F31F8081882331F089818F5F898389814C
:1027A0008031E0F2E989FA8910A68E85833010F035
:1027B00082E08E87E989FA898E85868BE989FA8994
:1027C0008E8581A7E989FA8912A689899A89029654
:1027D0000E94DD0889899A890C960E94DD08E989A2
:1027E000FA8989899A89918780878E85282F30E098
:1027F00083E090E0821B930BE989FA8995878487AF
:10280000E989FA8989899A89938B828BE989FA897E
:1028100013A614A615A616A6E989FA8917A68A8111
:102820009B812C813D814C855D85B9010E94E90920
:10283000E989FA89918380838F859889009731F09F
:10284000EF85F88989899A899183808364960FB688
:10285000F894DEBF0FBECDBFCF91DF911F910F91D6
:10286000EF90DF90CF90BF90AF909F908F900895A2
:10287000DF93CF9300D0CDB7DEB79A8389830FB6AD
:10288000F8940F92809140068F5F8093400680916C
:102890003D0690913E06009769F489819A81909354
:1028A0003E0680933D06809140068130B9F40E9437
:1028B0002D1C14C080914406882381F4E0913D06CC
:1028C000F0913E069689E981FA818689891730F070
:1028D00089819A8190933E0680933D0680914806B7
:1028E0008F5F80934806E981FA819689809143063B
:1028F000891728F4E981FA81868980934306E98162
:10290000FA818689282F30E0C901880F991F880F26
:10291000991F880F991F820F931FAC01425B594F7B
:1029200089819A819C012E5F3F4FCA01B9010E94A3
:10293000ED080F900FBE80914406882361F0E0916E
:102940003D06F0913E069689E981FA8186899817BD
:1029500010F40E94A80B0F900F90CF91DF91089573
:10296000DF93CF9300D000D000D0CDB7DEB79C83EB
:102970008B830FB6F8940F928B819C81009739F46A
:1029800080913D0690913E069E838D8304C08B818D
:102990009C819E838D838D819E819A838983898189
:1029A0009A8102960E949D09E981FA81848995891C
:1029B000009729F089819A810C960E949D09809147
:1029C00048068F5F8093480620913D0630913E0671
:1029D00089819A818217930781F489819A819C0168
:1029E0002E5F3F4F88E896E0B9010E94ED08809184
:1029F0003F068F5F80933F060BC080914006815059
:102A00008093400689819A810E94AD1C0E94C31C5C
:102A10000F900FBE80914406882359F020913D0607
:102A200030913E0689819A818217930711F40E94A2
:102A3000A80B26960FB6F894DEBF0FBECDBFCF9180
:102A4000DF910895DF93CF93CDB7DEB72A970FB606
:102A5000F894DEBF0FBECDBF98878F837A876987D2
:102A60001B820E94231880914106909142069A830E
:102A70008983EF81F8852081318189859A85820F4C
:102A8000931F9E838D83EF81F88520813181898119
:102A90009A818217930798F4EF81F885208131811C
:102AA0008D819E8182179307E0F42D813E8189817B
:102AB0009A8182179307A8F481E08B8312C0EF817B
:102AC000F885208131818D819E818217930738F0AE
:102AD0002D813E8189819A818217930710F481E0CC
:102AE0008B83EF81F8858D819E81918380838B819B
:102AF000882349F08D819E8129813A81821B930B25
:102B000060E00E94E6210E942F188C838C8188232C
:102B100011F40E94A80B2A960FB6F894DEBF0FBEE0
:102B2000CDBFCF91DF910895DF93CF9300D00F9267
:102B3000CDB7DEB79B838A8319828A819B810097F8
:102B400051F00E9423188A819B8160E00E94E62157
:102B50000E942F1889838981882311F40E94A80B71
:102B60000F900F900F90CF91DF910895DF93CF9347
:102B7000CDB7DEB72A970FB6F894DEBF0FBECDBF34
:102B80009F838E83688719828885833010F082E066
:102B900088870FB6F8940F928E819F81009739F441
:102BA00080913D0690913E069A87898704C08E8168
:102BB0009F819A87898789859A859D838C83EC81FB
:102BC000FD8181A58B839B818885981709F48DC031
:102BD00098858B818917A0F420913D0630913E069F
:102BE0008C819D8182179307B1F0E0913D06F091B1
:102BF0003E0696898885891770F081E089830BC02D
:102C000020913D0630913E068C819D81821793076D
:102C100011F481E08983EC81FD8186898A83EC81CE
:102C2000FD8191A5EC81FD818689981721F4EC81C5
:102C3000FD818885868BEC81FD81888581A7EC816B
:102C4000FD818485958599235CF08885282F30E067
:102C500083E090E0821B930BEC81FD819587848754
:102C6000EC81FD81428553858A81282F30E0C9019E
:102C7000880F991F880F991F880F991F820F931F24
:102C8000825B994F4817590759F58C819D810296AF
:102C90000E949D09EC81FD819689809143068917E8
:102CA00028F4EC81FD81868980934306EC81FD81C7
:102CB0008689282F30E0C901880F991F880F991F36
:102CC000880F991F820F931FAC01425B594F8C8173
:102CD0009D819C012E5F3F4FCA01B9010E94ED0802
:102CE0008981882311F00E94A80B0F900FBE2A96AD
:102CF0000FB6F894DEBF0FBECDBFCF91DF91089520
:102D0000DF93CF9300D000D000D0CDB7DEB79C8347
:102D10008B830FB6F8940F928B819C81009739F4C6
:102D200080913D0690913E069E838D8304C08B81E9
:102D30009C819E838D838D819E819A8389838981E5
:102D40009A8102960E949D09E981FA818489958978
:102D5000009729F089819A810C960E949D098981AA
:102D60009A819C012E5F3F4F81E996E0B9010E9454
:102D7000ED080F900FBE80914406882339F00FB6FE
:102D8000F8940F920E94C31C0F900FBE20913D0635
:102D900030913E0689819A8182179307A1F4809130
:102DA0004406882319F00E94A80B0DC0909191064B
:102DB00080914006981729F410923E0610923D0625
:102DC00002C00E94041A26960FB6F894DEBF0FBE0A
:102DD000CDBFCF91DF910895DF93CF9300D000D086
:102DE0000F92CDB7DEB79D838C831B828C819D8132
:102DF0009A838983E981FA818285938526E08139E6
:102E0000920781F4E981FA818489958926E08F37D8
:102E1000920741F0E981FA8184899589009711F43C
:102E200081E08B838B810F900F900F900F900F900C
:102E3000CF91DF910895DF93CF9300D000D0CDB72D
:102E4000DEB79C838B838B819C819A838983898164
:102E50009A81009709F44CC020913D0630913E06BE
:102E600089819A818217930709F442C00FB6F894BA
:102E70000F9289819A810E94EC168823B9F1898189
:102E80009A8102960E949D09E981FA819689809132
:102E90004306891728F4E981FA81868980934306DD
:102EA000E981FA818689282F30E0C901880F991FAE
:102EB000880F991F880F991F820F931FAC01425BE7
:102EC000594F89819A819C012E5F3F4FCA01B901F8
:102ED0000E94ED08E981FA819689E0913D06F09122
:102EE0003E068689981710F00E94A80B0F900FBE1F
:102EF0000F900F900F900F90CF91DF910895DF9377
:102F0000CF9300D000D000D0CDB7DEB79E838D83A5
:102F10001C828D819E819B838A8319828A819B81F9
:102F20000E94EC16882309F446C080914D06882340
:102F3000C1F5EA81FB819689E0913D06F0913E065C
:102F40008689981710F081E08C838A819B81029694
:102F50000E949D09EA81FB81968980914306891729
:102F600028F4EA81FB81868980934306EA81FB810C
:102F70008689282F30E0C901880F991F880F991F73
:102F8000880F991F820F931FAC01425B594F8A81B2
:102F90009B819C012E5F3F4FCA01B9010E94ED0841
:102FA0000AC08A819B819C01245F3F4F8FE796E096
:102FB000B9010E94ED088C8126960FB6F894DEBF09
:102FC0000FBECDBFCF91DF910895EF92FF920F9387
:102FD000DF93CF930F92CDB7DEB783E29CE120E67B
:102FE00030E0EBE4F6E0B90148EC50E020E030E0FE
:102FF00000E07F010E94051389838981813081F47B
:10300000F8948FEF9FEF90934A068093490681E0F2
:103010008093440610924206109241060E946C0B67
:103020000F90CF91DF910F91FF90EF900895DF9374
:10303000CF93CDB7DEB7F894109244060E94A10B4F
:10304000CF91DF910895DF93CF93CDB7DEB7809115
:103050004D068F5F80934D06CF91DF910895DF93EA
:10306000CF9300D000D0CDB7DEB71C821B821A826E
:103070000FB6F8940F9280914D06815080934D06C3
:1030800080914D06882309F073C080914006882303
:1030900009F46EC045C0E0918406F09185068681F2
:1030A00097819C838B838B819C810C960E949D09C8
:1030B0008B819C8102960E949D09EB81FC819689FF
:1030C00080914306891728F4EB81FC8186898093DF
:1030D0004306EB81FC818689282F30E0C901880FE7
:1030E000991F880F991F880F991F820F931FAC019A
:1030F000425B594F8B819C819C012E5F3F4FCA01DF
:10310000B9010E94ED08EB81FC819689E0913D06B2
:10311000F0913E068689981718F081E08093460664
:1031200080917F06882309F0B6CF8B819C81009720
:1031300011F00E94C31C80914506898389818823F0
:1031400079F00E941F19882319F081E080934606C8
:103150008981815089838981882399F71092450656
:1031600080914606882321F081E08A830E94A80B83
:103170000F900FBE8A810F900F900F900F90CF91FC
:10318000DF910895DF93CF9300D0CDB7DEB70FB6B0
:10319000F8940F9280914106909142069A83898318
:1031A0000F900FBE89819A810F900F90CF91DF9180
:1031B0000895DF93CF9300D00F92CDB7DEB7198279
:1031C00080914106909142069B838A838A819B81EC
:1031D0000F900F900F90CF91DF910895DF93CF93D1
:1031E000CDB7DEB780914006CF91DF910895DF9390
:1031F000CF9300D000D000D0CDB7DEB79C838B83B7
:103200008B819C81009739F480913D0690913E0618
:103210009E838D8304C08B819C819E838D838D8151
:103220009E819A83898389819A81499626960FB6D1
:10323000F894DEBF0FBECDBFCF91DF910895DF932D
:10324000CF93CDB7DEB729970FB6F894DEBF0FBE88
:10325000CDBF1D8280914D06882309F0C0C08091AA
:1032600041069091420601969C838B838B819C81C1
:1032700090934206809341068B819C810097D9F4FC
:1032800080917B0690917C069A83898380917D064C
:1032900090917E0690937C0680937B0689819A812B
:1032A00090937E0680937D06809147068F5F809382
:1032B00047060E94C31C2091490630914A068B8123
:1032C0009C818217930708F471C0E0917B06F0910E
:1032D0007C068081882339F48FEF9FEF90934A0614
:1032E0008093490663C0E0917B06F0917C060580DF
:1032F000F681E02D8681978199878887E885F98511
:10330000828193819F838E832B813C818E819F81DB
:103310002817390738F48E819F8190934A0680934D
:10332000490644C08885998502960E949D09E885D2
:10333000F98584899589009729F0888599850C9667
:103340000E949D09E885F985968980914306891731
:1033500028F4E885F985868980934306E885F98510
:103360008689282F30E0C901880F991F880F991F7F
:10337000880F991F820F931FAC01425B594F8885BC
:1033800099859C012E5F3F4FCA01B9010E94ED084B
:10339000E885F9859689E0913D06F0913E0686899B
:1033A000981708F492CF81E08D838FCFE0913D068E
:1033B000F0913E068689282F30E0C901880F991FB9
:1033C000880F991F880F991F820F931FFC01E25BE2
:1033D000F94F8081823040F081E08D8305C080917B
:1033E00045068F5F8093450680914606882311F03D
:1033F00081E08D838D8129960FB6F894DEBF0FBED4
:10340000CDBFCF91DF910895DF93CF9300D00F927E
:10341000CDB7DEB780914D06882321F081E08093FF
:10342000460659C010924606809143068B8303C01E
:103430008B8181508B838B81282F30E0C901880FCD
:10344000991F880F991F880F991F820F931FFC01E6
:10345000E25BF94F8081882359F38B81282F30E07C
:10346000C901880F991F880F991F880F991F820F14
:10347000931F825B994F9A838983E981FA81018046
:10348000F281E02D82819381E981FA8192838183A7
:10349000E981FA812181328189819A8103962817F5
:1034A000390759F4E981FA810180F281E02D8281A6
:1034B0009381E981FA8192838183E981FA81018094
:1034C000F281E02D8681978190933E0680933D06A0
:1034D0008B81809343060F900F900F90CF91DF91D7
:1034E0000895DF93CF9300D000D0CDB7DEB79A8395
:1034F00089837C836B8380913D0690913E069C017D
:10350000245F3F4F89819A81B9010E9431098B81E3
:103510009C8161E00E94E6210F900F900F900F9028
:10352000CF91DF910895DF93CF9300D000D000D0EA
:10353000CDB7DEB79A8389837C836B835E834D83AB
:10354000E0913D06F0913E068B819C8190689587C5
:10355000848780913D0690913E069C01245F3F4FF9
:1035600089819A81B9010E94ED088D819E8161E077
:103570000E94E62126960FB6F894DEBF0FBECDBF9F
:10358000CF91DF910895DF93CF9300D000D00F92B9
:10359000CDB7DEB79D838C83EC81FD810580F681FC
:1035A000E02D868197819B838A838A819B810C96FB
:1035B0000E949D0980914D06882361F58A819B8137
:1035C00002960E949D09EA81FB81968980914306BB
:1035D000891728F4EA81FB81868980934306EA8172
:1035E000FB818689282F30E0C901880F991F880F39
:1035F000991F880F991F820F931FAC01425B594F8F
:103600008A819B819C012E5F3F4FCA01B9010E94B4
:10361000ED080AC08A819B819C01245F3F4F8FE7A0
:1036200096E0B9010E94ED08EA81FB819689E0915C
:103630003D06F0913E068689891730F481E0898342
:1036400081E08093460601C0198289810F900F9016
:103650000F900F900F90CF91DF910895DF93CF934C
:10366000CDB7DEB727970FB6F894DEBF0FBECDBF3C
:103670009D838C837F836E838E819F819068EC8194
:10368000FD8191838083EC81FD81868197819B837D
:103690008A838C819D810E949D098A819B810296EB
:1036A0000E949D09EA81FB819689809143068917D2
:1036B00028F4EA81FB81868980934306EA81FB81B5
:1036C0008689282F30E0C901880F991F880F991F1C
:1036D000880F991F820F931FAC01425B594F8A815B
:1036E0009B819C012E5F3F4FCA01B9010E94ED08EA
:1036F000EA81FB819689E0913D06F0913E0686893C
:10370000891730F481E0898381E08093460601C007
:103710001982898127960FB6F894DEBF0FBECDBF00
:10372000CF91DF910895DF93CF9300D0CDB7DEB76F
:103730009A83898380914706E981FA818083809109
:10374000410690914206E981FA81928381830F902C
:103750000F90CF91DF910895DF93CF93CDB7DEB770
:1037600027970FB6F894DEBF0FBECDBF9D838C8325
:103770007F836E830FB6F8940F92809141069091EB
:1037800042069A838983EE81FF81808191812FEFA8
:103790008F3F920711F41B8240C0EC81FD81908124
:1037A00080914706981761F0EC81FD81218132817B
:1037B00089819A818217930718F081E08B832DC04D
:1037C000EC81FD812181328189819A81AC01421B8A
:1037D000530B9A01EE81FF8180819181281739076F
:1037E000D0F4EE81FF8140815181EC81FD81218106
:1037F000328189819A81B901681B790BCB01840FD1
:10380000951FEE81FF81918380838C819D810E9431
:10381000931B1B8202C081E08B830F900FBE8B81B4
:1038200027960FB6F894DEBF0FBECDBFCF91DF91C4
:103830000895DF93CF93CDB7DEB781E0809346063E
:10384000CF91DF910895DF93CF9300D0CDB7DEB74E
:103850009A8389830E946E1CFDCFDF93CF930F92D2
:10386000CDB7DEB7198213C08981282F30E0C90196
:10387000880F991F880F991F880F991F820F931F18
:10388000825B994F0E94B30889818F5F8983898108
:10389000833050F389E696E00E94B30882E796E011
:1038A0000E94B3088FE796E00E94B30888E896E08C
:1038B0000E94B30881E996E00E94B30889E696E089
:1038C00090937C0680937B0682E796E090937E0639
:1038D00080937D060F90CF91DF910895DF93CF9372
:1038E00000D00F92CDB7DEB72EC00E942318809172
:1038F00088061B82882311F481E08B830E942F1895
:103900008B81882301F50FB6F8940F92E0918D0614
:10391000F0918E06868197819A83898389819A8125
:1039200002960E949D098091400681508093400636
:1039300080913F06815080933F060F900FBE898192
:103940009A810E94AD1C80913F06882371F60F90EA
:103950000F900F90CF91DF910895DF93CF9300D018
:10396000CDB7DEB79A838983E981FA818789908D03
:103970000E94FF0789819A810E94FF070F900F9094
:10398000CF91DF910895DF93CF9300D0CDB7DEB70D
:10399000E0917B06F0917C068081882339F48FEFDB
:1039A0009FEF90934A068093490613C0E0917B06EF
:1039B000F0917C060580F681E02D868197819A83BF
:1039C0008983E981FA818281938190934A06809369
:1039D00049060F900F90CF91DF910895DF93CF9319
:1039E00000D0CDB7DEB780913D0690913E069A8318
:1039F000898389819A810F900F90CF91DF910895EB
:103A0000DF93CF9300D000D0CDB7DEB79C838B83FC
:103A10008B819C819A8389838B819C81009709F497
:103A200073C0E981FA819689E0913D06F0913E06E6
:103A30008689981708F068C0E981FA8184859585A0
:103A400099237CF0E0913D06F0913E068689282F6F
:103A500030E083E090E0821B930BE981FA81958747
:103A60008487E981FA8142855385E981FA818689D3
:103A7000282F30E0C901880F991F880F991F880FE0
:103A8000991F820F931F825B994F48175907A1F521
:103A900089819A8102960E949D09E0913D06F091EC
:103AA0003E068689E981FA81868BE981FA819689C9
:103AB00080914306891728F4E981FA8186898093E9
:103AC0004306E981FA818689282F30E0C901880FF1
:103AD000991F880F991F880F991F820F931FAC01A0
:103AE000425B594F89819A819C012E5F3F4FCA01E9
:103AF000B9010E94ED0808C0E0913D06F0913E0634
:103B00008689E981FA81868B0F900F900F900F9034
:103B1000CF91DF910895DF93CF9300D000D00F9223
:103B2000CDB7DEB79D838C838C819D819B838A83F7
:103B300019828C819D81009709F456C0EA81FB812E
:103B400082A58150EA81FB8182A7EA81FB81968967
:103B5000EA81FB8181A5981709F446C0EA81FB81BF
:103B600082A5882309F040C08A819B8102960E9429
:103B70009D09EA81FB8181A5EA81FB81868BEA812F
:103B8000FB818689282F30E083E090E0821B930B35
:103B9000EA81FB8195878487EA81FB819689809100
:103BA0004306891728F4EA81FB81868980934306BE
:103BB000EA81FB818689282F30E0C901880F991F8F
:103BC000880F991F880F991F820F931FAC01425BCA
:103BD000594F8A819B819C012E5F3F4FCA01B901D9
:103BE0000E94ED0881E0898389810F900F900F90EA
:103BF0000F900F90CF91DF910895DF93CF9300D076
:103C0000CDB7DEB7E0913D06F0913E0684859585FF
:103C10009A838983A0913D06B0913E06E0913D06CE
:103C2000F0913E068689282F30E083E090E0821BE9
:103C3000930B1D969C938E931C9789819A810F906C
:103C40000F90CF91DF910895DF93CF93CDB7DEB77B
:103C500080913D0690913E06009739F0E0913D0637
:103C6000F0913E0682A58F5F82A780913D069091DC
:103C70003E06CF91DF910895DF93CF93CDB7DEB7A6
:103C800027970FB6F894DEBF0FBECDBF8D837F831D
:103C90006E830FB6F8940F92E0913D06F0913E06C8
:103CA00083A594A5A5A5B6A50097A105B10589F49E
:103CB000E0913D06F0913E0681E087A78E819F81CD
:103CC000009739F08E819F8161E00E94E6210E9479
:103CD000A80B0F900FBE0FB6F8940F92E0913D061F
:103CE000F0913E0683A594A5A5A5B6A589839A83E0
:103CF000AB83BC8389819A81AB81BC810097A1058C
:103D0000B105D9F08D81882349F0E0913D06F0910D
:103D10003E0613A614A615A616A60FC0E0913D06F2
:103D2000F0913E0689819A81AB81BC810197A109FE
:103D3000B10983A794A7A5A7B6A7E0913D06F09186
:103D40003E0617A60F900FBE89819A81AB81BC8178
:103D5000BC01CD0127960FB6F894DEBF0FBECDBFD4
:103D6000CF91DF910895EF92FF920F931F93DF930E
:103D7000CF93CDB7DEB72D970FB6F894DEBF0FBE49
:103D8000CDBF6A837B838C839D832E833F8348874B
:103D900059871B870A87FD86EC860FB6F8940F9229
:103DA000E0913D06F0913E0687A5823049F1E09111
:103DB0003D06F0913E0623A534A545A556A58A816A
:103DC0009B81AC81BD8180959095A095B095822313
:103DD0009323A423B52383A794A7A5A7B6A7E0910F
:103DE0003D06F0913E0681E087A78C859D85009772
:103DF00039F08C859D8561E00E94E6210E94A80B28
:103E00000F900FBE0FB6F8940F928A859B8500978E
:103E100071F0E0913D06F0913E0683A594A5A5A51D
:103E2000B6A5EA85FB8580839183A283B383E09165
:103E30003D06F0913E0687A5813011F419821AC023
:103E4000E0913D06F0913E0623A534A545A556A573
:103E50008E819F81A885B98580959095A095B09514
:103E600082239323A423B52383A794A7A5A7B6A74A
:103E700081E08983E0913D06F0913E0617A60F9000
:103E80000FBE89812D960FB6F894DEBF0FBECDBF51
:103E9000CF91DF911F910F91FF90EF9008950F93B5
:103EA0001F93DF93CF93CDB7DEB72F970FB6F8945C
:103EB000DEBF0FBECDBF9E838D834F83588769873A
:103EC0007A872B871D870C8781E08A838D819E816D
:103ED0009C838B830FB6F8940F928C859D850097F9
:103EE00061F0EB81FC8183A594A5A5A5B6A5EC8521
:103EF000FD8580839183A283B383EB81FC8187A5B9
:103F00008983EB81FC8182E087A78B85282F30E0B5
:103F10003F872E878E859F858230910559F12E85AA
:103F20003F852330310534F48E859F85813091059E
:103F300061F04AC02E853F852330310559F18E85C9
:103F40009F858430910589F13FC0EB81FC8123A5D9
:103F500034A545A556A58F819885A985BA85822B5C
:103F6000932BA42BB52BEB81FC8183A794A7A5A74A
:103F7000B6A72AC0EB81FC8183A594A5A5A5B6A50B
:103F80000196A11DB11DEB81FC8183A794A7A5A774
:103F9000B6A71AC0EB81FC818F819885A985BA8567
:103FA00083A794A7A5A7B6A70FC08981823059F02F
:103FB000EB81FC818F819885A985BA8583A794A719
:103FC000A5A7B6A701C01A8289818130B9F58B8176
:103FD0009C8102960E949D09EB81FC8196898091CB
:103FE0004306891728F4EB81FC8186898093430678
:103FF000EB81FC818689282F30E0C901880F991F49
:10400000880F991F880F991F820F931FAC01425B85
:10401000594F8B819C819C012E5F3F4FCA01B90192
:104020000E94ED08EB81FC819689E0913D06F091BC
:104030003E068689891710F40E94A80B0F900FBEC8
:104040008A812F960FB6F894DEBF0FBECDBFCF91F9
:10405000DF911F910F910895EF92FF920F931F939D
:10406000DF93CF93CDB7DEB762970FB6F894DEBF7C
:104070000FBECDBF9F838E83488759876A877B8712
:104080002C871E870D87F88AEF8681E08A838E81D0
:104090009F819D838C8319828D859E85009761F019
:1040A000EC81FD8183A594A5A5A5B6A5ED85FE852A
:1040B00080839183A283B383EC81FD8187A58B8369
:1040C000EC81FD8182E087A78C85282F30E03A8B38
:1040D000298B89899A898230910559F129893A89F0
:1040E0002330310534F489899A898130910561F052
:1040F0004AC029893A892330310559F189899A8939
:104100008430910589F13FC0EC81FD8123A534A560
:1041100045A556A588859985AA85BB85822B932BB5
:10412000A42BB52BEC81FD8183A794A7A5A7B6A7E7
:104130002AC0EC81FD8183A594A5A5A5B6A501960D
:10414000A11DB11DEC81FD8183A794A7A5A7B6A7EA
:104150001AC0EC81FD8188859985AA85BB8583A7D6
:1041600094A7A5A7B6A70FC08B81823059F0EC8128
:10417000FD8188859985AA85BB8583A794A7A5A776
:10418000B6A701C01A828B81813009F050C080919E
:104190004D06882361F58C819D8102960E949D09C0
:1041A000EC81FD81968980914306891728F4EC8182
:1041B000FD81868980934306EC81FD818689282FC5
:1041C00030E0C901880F991F880F991F880F991F28
:1041D000820F931FAC01425B594F8C819D819C01E2
:1041E0002E5F3F4FCA01B9010E94ED080AC08C81C1
:1041F0009D819C01245F3F4F8FE796E0B9010E94AB
:10420000ED08EC81FD819689E0913D06F0913E0636
:104210008689891760F48F859889009729F0EF8542
:10422000F88981E0808303C081E0809346068A811B
:1042300062960FB6F894DEBF0FBECDBFCF91DF916F
:104240001F910F91FF90EF900895DF93CF93CDB71B
:10425000DEB728970FB6F894DEBF0FBECDBF9E83A2
:104260008D8378876F838D819E819C838B83198258
:10427000EB81FC8187A58A83EB81FC8182E087A7A3
:10428000EB81FC8183A594A5A5A5B6A50196A11DEA
:10429000B11DEB81FC8183A794A7A5A7B6A78A814E
:1042A000813009F050C080914D06882361F58B81E3
:1042B0009C8102960E949D09EB81FC8196898091E8
:1042C0004306891728F4EB81FC8186898093430695
:1042D000EB81FC818689282F30E0C901880F991F66
:1042E000880F991F880F991F820F931FAC01425BA3
:1042F000594F8B819C819C012E5F3F4FCA01B901B0
:104300000E94ED080AC08B819C819C01245F3F4F75
:104310008FE796E0B9010E94ED08EB81FC81968958
:10432000E0913D06F0913E068689891760F48F8101
:104330009885009729F0EF81F88581E0808303C09C
:1043400081E08093460628960FB6F894DEBF0FBE34
:10435000CDBFCF91DF910895DF93CF93CDB7DEB777
:1043600027970FB6F894DEBF0FBECDBF9D838C8319
:104370008C819D81009739F480913D0690913E0695
:104380009F838E8304C08C819D819F838E838E81C9
:104390009F819B838A830FB6F8940F92EA81FB81F9
:1043A00087A5823031F4EA81FB8117A681E08983F9
:1043B00001C019820F900FBE898127960FB6F8941D
:1043C000DEBF0FBECDBFCF91DF910895DF93CF93B6
:1043D000CDB7DEB727970FB6F894DEBF0FBECDBFBF
:1043E0009E838D836F8380914106909142069A83CC
:1043F000898380913D0690913E0602960E949D0918
:104400008D819E812FEF8F3F920781F48F818823CA
:1044100069F080913D0690913E069C012E5F3F4FD2
:1044200081E996E0B9010E94ED0843C029813A81F3
:104430008D819E81820F931F9C838B83E0913D062B
:10444000F0913E068B819C81938382832B813C81FA
:1044500089819A812817390770F480917D0690919F
:104460007E0620913D0630913E062E5F3F4FB901FA
:104470000E9431091EC040917B0650917C068091BC
:104480003D0690913E069C012E5F3F4FCA01B90147
:104490000E9431092091490630914A068B819C8106
:1044A0008217930730F48B819C8190934A06809306
:1044B000490627960FB6F894DEBF0FBECDBFCF9149
:1044C000DF910895DF93CF9300D0CDB7DEB788E1B9
:1044D0008A8380E889838981826089838981846075
:1044E00089838A818B7F8A8389818F7B8983898174
:1044F000877F898389818F7E898389818F7D898365
:1045000089818E7F8983E0E4F0E01082E9E2F0E0C7
:1045100088E08083EAE2F0E08A818083E0E4F0E0F2
:10452000898180830F900F90CF91DF910895DF9361
:10453000CF9300D0CDB7DEB79A838983EBE2F0E06A
:104540008081829586958770882F90E08170907029
:104550000097A1F3ECE2F0E0898180830F900F9047
:10456000CF91DF910895DF93CF9300D000D00F92C9
:10457000CDB7DEB79D838C831B821A82EBE2F0E01D
:1045800080818823DCF7EBE2F0E080818C718A8304
:104590008A81882319F081E08B8309C0ECE2F0E086
:1045A0008081882F90E0EC81FD81918380838B81D5
:1045B0000F900F900F900F900F90CF91DF91089573
:1045C000DF93CF9300D000D0CDB7DEB79B838A8333
:1045D0006C831982198212C08981882F90E09C0116
:1045E000220F331F8A819B81FC01E20FF31F808120
:1045F00091810E94972289818F5F898399818C8123
:10460000981750F30F900F900F900F90CF91DF916C
:104610000895DF93CF93CDB7DEB7CF91DF910895A3
:10462000DF93CF93CDB7DEB7CF91DF910895DF93BE
:10463000CF93CDB7DEB7CF91DF910895DF93CF93BE
:10464000CDB7DEB7CF91DF910895DF93CF93CDB78C
:10465000DEB7CF91DF910895DF93CF93CDB7DEB76B
:10466000CF91DF910895DF93CF93CDB7DEB7A5E467
:10467000B0E0E5E4F0E0808180648C93A5E4B0E0F4
:10468000E5E4F0E08081877F8C93A5E4B0E0E5E489
:10469000F0E080818F7E8C93A5E4B0E0E5E4F0E06B
:1046A000808180628C93CF91DF910895DF93CF93C7
:1046B000CDB7DEB7A2E4B0E0E2E4F0E0808188604C
:1046C0008C93CF91DF910895DF93CF93CDB7DEB771
:1046D000A2E4B0E0E2E4F0E08081877F8C93CF91A8
:1046E000DF910895DF93CF930F92CDB7DEB7898323
:1046F000A5E4B0E0E5E4F0E08081887F8C93A5E458
:10470000B0E0E5E4F0E08081982F89818770892B03
:104710008C930F90CF91DF910895DF93CF93CDB716
:10472000DEB7A5E4B0E0E5E4F0E08081887F8C931B
:10473000CF91DF910895DF93CF93CDB7DEB7A9E591
:10474000B0E0E9E5F0E0808180648C93CF91DF9167
:104750000895DF93CF93CDB7DEB7A9E5B0E0E9E5E3
:10476000F0E080818F7B8C93CF91DF910895DF9370
:10477000CF93CDB7DEB7A9E5B0E0E9E5F0E0808101
:1047800080688C93CF91DF910895DF93CF93CDB75D
:10479000DEB7A9E5B0E0E9E5F0E080818F778C93A2
:1047A000CF91DF910895DF93CF9300D0CDB7DEB7DF
:1047B0009A83898389819A819093A7068093A6061C
:1047C0000F900F90CF91DF910895DF93CF9300D09A
:1047D000CDB7DEB79A83898389819A819093A506A4
:1047E0008093A4060F900F90CF91DF910895DF93EF
:1047F000CF930F92CDB7DEB78983E4E4F0E08981EF
:1048000080830F90CF91DF910895DF93CF930F9224
:10481000CDB7DEB78983E3E4F0E0898180830F9030
:10482000CF91DF910895DF93CF93CDB7DEB7E4E466
:10483000F0E08081CF91DF910895DF93CF930F92C5
:10484000CDB7DEB789830F90CF91DF9108951F9286
:104850000F920FB60F9211242F933F934F935F93B4
:104860006F937F938F939F93AF93BF93EF93FF9338
:10487000DF93CF93CDB7DEB7E091A606F091A70600
:104880000995CF91DF91FF91EF91BF91AF919F91EA
:104890008F917F916F915F914F913F912F910F90E9
:1048A0000FBE0F901F9018951F920F920FB60F9288
:1048B00011242F933F934F935F936F937F938F9325
:1048C0009F93AF93BF93EF93FF93DF93CF93CDB7B6
:1048D000DEB7E091A406F091A5060995CF91DF918E
:1048E000FF91EF91BF91AF919F918F917F916F91C8
:1048F0005F914F913F912F910F900FBE0F901F909E
:104900001895DF93CF930F92CDB7DEB7198284E667
:104910008983898181608983E2E2F0E089818083F3
:10492000E1E2F0E081E08083E0E2F0E080E180839A
:10493000E6E5F0E084E080830F90CF91DF91089569
:10494000DF93CF93CDB7DEB7E6E5F0E084EA80836E
:10495000E6E5F0E080818823DCF7CF91DF910895D0
:10496000DF93CF93CDB7DEB7E1E2F0E08081887FBF
:10497000CF91DF910895DF93CF930F92CDB7DEB73C
:104980008983E3E2F0E089818083E6E5F0E084E872
:104990008083E6E5F0E080818823DCF70F90CF91FB
:1049A000DF910895DF93CF93CDB7DEB7E6E5F0E072
:1049B00084E98083CF91DF910895DF93CF93CDB7C2
:1049C000DEB7E6E5F0E084E88083E6E5F0E08081AC
:1049D0008823DCF7E3E2F0E08081CF91DF91089556
:1049E000DF93CF93CDB7DEB7E6E5F0E084EC8083CC
:1049F000E6E5F0E080818823DCF7E3E2F0E0808107
:104A0000CF91DF910895DF93CF93CDB7DEB7AFE5B8
:104A1000B0E0EFE5F0E0808180688C93CF91DF918A
:104A20000895DF93CF93CDB7DEB7AFE5B0E0EFE504
:104A3000F0E080818F778C93CF91DF910895DF93A1
:104A4000CF93CDB7DEB7EAE3F0E08EEF8083E7E304
:104A5000F0E08FEF8083E4E3F0E08FEF8083E1E329
:104A6000F0E08EEF8083CF91DF910895DF93CF93B5
:104A700000D0CDB7DEB78A8319828A818830A0F44E
:104A8000ABE3B0E0EBE3F0E08081482F8A81282F90
:104A900030E081E090E0022E02C0880F991F0A9456
:104AA000E2F784278C9359C08A818830D0F08A81BC
:104AB0008031B8F4A8E3B0E0E8E3F0E08081482F6B
:104AC0008A81882F90E09C012770307081E090E00F
:104AD000022E02C0880F991F0A94E2F784278C9354
:104AE0003CC08A818031D0F08A818831B8F4A5E356
:104AF000B0E0E5E3F0E08081482F8A81882F90E0E4
:104B00009C012770307081E090E0022E02C0880F77
:104B1000991F0A94E2F784278C931FC08A818831F9
:104B2000D0F08A818032B8F4A2E3B0E0E2E3F0E0B2
:104B30008081482F8A81882F90E09C0127703070F7
:104B400081E090E0022E02C0880F991F0A94E2F7DC
:104B500084278C9302C082E0898389810F900F9013
:104B6000CF91DF910895DF93CF9300D000D00F92C3
:104B7000CDB7DEB78A836B8319828B81282F30E013
:104B80003D832C838C819D81009739F02C813D8160
:104B90002130310509F476C0E5C08A818830A8F457
:104BA000ABE3B0E0EBE3F0E08081482F8A81282F6F
:104BB00030E081E090E0022E02C0880F991F0A9435
:104BC000E2F7809584238C93CDC08A818830D8F019
:104BD0008A818031C0F4A8E3B0E0E8E3F0E08081AE
:104BE000482F8A81882F90E09C012770307081E0E7
:104BF00090E0022E02C0880F991F0A94E2F7809578
:104C000084238C93AFC08A818031D8F08A81883127
:104C1000C0F4A5E3B0E0E5E3F0E08081482F8A81AD
:104C2000882F90E09C012770307081E090E0022E88
:104C300002C0880F991F0A94E2F7809584238C9311
:104C400091C08A818831D8F08A818032C0F4A2E391
:104C5000B0E0E2E3F0E08081482F8A81882F90E085
:104C60009C012770307081E090E0022E02C0880F16
:104C7000991F0A94E2F7809584238C9373C082E095
:104C8000898370C08A818830A0F4ABE3B0E0EBE3A5
:104C9000F0E08081482F8A81282F30E081E090E089
:104CA000022E02C0880F991F0A94E2F7842B8C937E
:104CB00059C08A818830D0F08A818031B8F4A8E365
:104CC000B0E0E8E3F0E08081482F8A81882F90E00F
:104CD0009C012770307081E090E0022E02C0880FA6
:104CE000991F0A94E2F7842B8C933CC08A8180310F
:104CF000D0F08A818831B8F4A5E3B0E0E5E3F0E0D4
:104D00008081482F8A81882F90E09C012770307025
:104D100081E090E0022E02C0880F991F0A94E2F70A
:104D2000842B8C931FC08A818831D0F08A81803295
:104D3000B8F4A2E3B0E0E2E3F0E08081482F8A819A
:104D4000882F90E09C012770307081E090E0022E67
:104D500002C0880F991F0A94E2F7842B8C9302C03B
:104D600082E0898389810F900F900F900F900F90B0
:104D7000CF91DF910895DF93CF9300D000D0CDB7CE
:104D8000DEB78A837C836B8319828A818830A0F4A2
:104D9000E9E3F0E08081282F30E08A81882F90E0DD
:104DA000A90102C0559547958A95E2F7CA0181701D
:104DB000EB81FC81808356C08A818830C8F08A816B
:104DC0008031B0F4E6E3F0E08081282F30E08A8182
:104DD000882F90E087709070A90102C05595479583
:104DE0008A95E2F7CA018170EB81FC8180833AC029
:104DF0008A818031C8F08A818831B0F4E3E3F0E041
:104E00008081282F30E08A81882F90E08770907011
:104E1000A90102C0559547958A95E2F7CA018170AC
:104E2000EB81FC8180831EC08A818831C8F08A8131
:104E30008032B0F4E0E3F0E08081282F30E08A8116
:104E4000882F90E087709070A90102C05595479512
:104E50008A95E2F7CA018170EB81FC81808302C0F0
:104E600082E0898389810F900F900F900F90CF91EE
:104E7000DF910895DF93CF9300D000D00F92CDB78C
:104E8000DEB78A836B8319828B81282F30E03D83C4
:104E90002C838C819D81009739F02C813D812130BC
:104EA000310509F476C0E5C08A818830A8F4ABE307
:104EB000B0E0EBE3F0E08081482F8A81282F30E0DA
:104EC00081E090E0022E02C0880F991F0A94E2F759
:104ED000809584238C93CDC08A818830D8F08A81D4
:104EE0008031C0F4A8E3B0E0E8E3F0E08081482F2F
:104EF0008A81882F90E09C012770307081E090E0DB
:104F0000022E02C0880F991F0A94E2F7809584232D
:104F10008C93AFC08A818031D8F08A818831C0F407
:104F2000A5E3B0E0E5E3F0E08081482F8A81882F97
:104F300090E09C012770307081E090E0022E02C06A
:104F4000880F991F0A94E2F7809584238C9391C06F
:104F50008A818831D8F08A818032C0F4A2E3B0E03F
:104F6000E2E3F0E08081482F8A81882F90E09C0165
:104F70002770307081E090E0022E02C0880F991FE8
:104F80000A94E2F7809584238C9373C082E089832E
:104F900070C08A818830A0F4ABE3B0E0EBE3F0E0CE
:104FA0008081482F8A81282F30E081E090E0022E16
:104FB00002C0880F991F0A94E2F7842B8C9359C082
:104FC0008A818830D0F08A818031B8F4A8E3B0E0DB
:104FD000E8E3F0E08081482F8A81882F90E09C01EF
:104FE0002770307081E090E0022E02C0880F991F78
:104FF0000A94E2F7842B8C933CC08A818031D0F0F4
:105000008A818831B8F4A5E3B0E0E5E3F0E080817F
:10501000482F8A81882F90E09C012770307081E0B2
:1050200090E0022E02C0880F991F0A94E2F7842BA9
:105030008C931FC08A818831D0F08A818032B8F485
:10504000A2E3B0E0E2E3F0E08081482F8A81882F7C
:1050500090E09C012770307081E090E0022E02C049
:10506000880F991F0A94E2F7842B8C9302C082E088
:10507000898389810F900F900F900F900F90CF919F
:10508000DF910895DF93CF93CDB7DEB727970FB6A3
:10509000F894DEBF0FBECDBF9C838B837E836D8370
:1050A0004F831A8219821AC08981282F30E08B81A0
:1050B0009C81FC01E20FF31F40818981282F30E0A1
:1050C0008D819E81FC01E20FF31F9081842F692F57
:1050D0000E94B3258A8389818F5F898399818F811B
:1050E000981710F38A8127960FB6F894DEBF0FBE8B
:1050F000CDBFCF91DF910895DF93CF9300D000D043
:105100000F92CDB7DEB78A836B8319828A81282FED
:1051100030E03D832C838C819D8181309105D1F0DD
:105120002C813D81223031052CF48C819D810097AA
:1051300061F01FC02C813D812230310581F08C81CE
:105140009D818330910581F014C0EBE3F0E08B8109
:10515000808311C0E8E3F0E08B8180830CC0E5E33D
:10516000F0E08B81808307C0E2E3F0E08B818083F5
:1051700002C082E0898389810F900F900F900F9079
:105180000F90CF91DF910895DF93CF93CDB7DEB726
:10519000A6E2B0E0E6E2F0E080818F7D8C93A7E2AA
:1051A000B0E0E7E2F0E080818F7D8C93A7E2B0E091
:1051B000E7E2F0E080818F7B8C93A7E2B0E0E7E24A
:1051C000F0E080818F778C93A6E2B0E0E6E2F0E039
:1051D00080818E7F8C93A6E2B0E0E6E2F0E08081F1
:1051E0008D7F8C93A6E2B0E0E6E2F0E080818460FF
:1051F0008C93CF91DF910895DF93CF93CDB7DEB736
:10520000A6E2B0E0E6E2F0E0808180688C93CF9186
:10521000DF910895DF93CF93CDB7DEB7A6E2B0E07C
:10522000E6E2F0E080818F778C93CF91DF91089553
:10523000DF93CF93CDB7DEB7A6E2B0E0E6E2F0E0D1
:10524000808188608C93CF91DF910895DF93CF9315
:10525000CDB7DEB7A6E2B0E0E6E2F0E08081877F7E
:105260008C93CF91DF910895DF93CF9300D0CDB78A
:10527000DEB79A83898389819A8190939B06809374
:105280009A060F900F90CF91DF910895DF93CF93FF
:1052900000D0CDB7DEB78A838FE1898399818A8177
:1052A00089238983A7E2B0E0E7E2F0E08081807E95
:1052B0008C93A7E2B0E0E7E2F0E090818A81892B4D
:1052C0008C93A6E2B0E0E6E2F0E0808180648C930B
:1052D0000F900F90CF91DF910895DF93CF9300D07F
:1052E0000F92CDB7DEB789838981282F30E03B83C9
:1052F0002A838A819B81009769F02A813B81213032
:10530000310579F4A6E2B0E0E6E2F0E080818F7D3D
:105310008C9307C0A6E2B0E0E6E2F0E08081806214
:105320008C930F900F900F90CF91DF910895DF93A2
:10533000CF9300D00F92CDB7DEB78B838B810E94C5
:105340004629E6E2F0E0808182958F70882F90E018
:10535000817090700097A9F3A6E2B0E0E6E2F0E079
:10536000808180618C93E4E2F0E08081882F90E07E
:105370009A838983E5E2F0E08081882F90E0982F7E
:1053800088279C0189819A81822B932B9A83898318
:1053900089819A810F900F900F90CF91DF9108959E
:1053A000DF93CF93CDB7DEB78091A8069091A90681
:1053B000CF91DF9108951F920F920FB60F92112493
:1053C0002F933F934F935F936F937F938F939F930D
:1053D000AF93BF93EF93FF93DF93CF93CDB7DEB738
:1053E00080919A0690919B06009729F0E0919A0689
:1053F000F0919B060995E4E2F0E08081882F90E02F
:105400009093A9068093A806E5E2F0E08081882FBA
:1054100090E0982F88279C018091A8069091A9067A
:10542000822B932B9093A9068093A806CF91DF91AE
:10543000FF91EF91BF91AF919F918F917F916F916C
:105440005F914F913F912F910F900FBE0F901F9042
:105450001895DF93CF93CDB7DEB70E94C4280E9482
:10546000FC28CF91DF910895DF93CF93CDB7DEB7BE
:1054700027970FB6F894DEBF0FBECDBF8F838F8105
:105480000E9497299A83898389819A81CC01A0E01F
:10549000B0E0BC01CD010E94A904DC01CB01BC013C
:1054A000CD0120E030E040EA50E40E941F02DC0120
:1054B000CB01BC01CD0120E030E040E854E40E9483
:1054C0001903DC01CB01BC01CD0120E030E048EC48
:1054D00052E40E941F02DC01CB018B839C83AD83CD
:1054E000BE838B819C81AD81BE81BC01CD0127969D
:1054F0000FB6F894DEBF0FBECDBFCF91DF910895F8
:10550000DF93CF9300D000D000D0CDB7DEB78E832D
:1055100084E08A8385E08B8386E08C8387E08D83BB
:10552000198219821FC08981282F30E0CE0102968E
:10553000FC01E20FF31F40818E81282F30E089812A
:10554000882F90E0B90102C0759567958A95E2F7BA
:10555000CB01982F9170842F692F0E94B3258981E8
:105560008F5F898389818430F0F226960FB6F89494
:10557000DEBF0FBECDBFCF91DF910895DF93CF93F4
:10558000CDB7DEB72E970FB6F894DEBF0FBECDBFF6
:105590008BE061E00E94B32580E090E0A0E0B0E401
:1055A0008B879C87AD87BE876B857C858D859E8527
:1055B00020E030E04AE755E40E941F02DC01CB0105
:1055C0008F839887A987BA876F81788589859A851F
:1055D00020E030E040E85FE30E94250488232CF4BB
:1055E00081E090E09E838D833FC06F8178858985BF
:1055F0009A8520E03FEF4FE757E40E94C503181655
:105600004CF56B857C858D859E8520E030E040E201
:1056100051E40E941F02DC01CB01BC01CD010E94BC
:105620004900DC01CB019E838D830FC080E991E0AE
:105630009C838B838B819C810197F1F79C838B8367
:105640008D819E8101979E838D838D819E810097A0
:1056500069F714C06F81788589859A850E94490011
:10566000DC01CB019E838D838D819E819A8389830A
:1056700089819A810197F1F79A8389838BE060E0B1
:105680000E94B3252E960FB6F894DEBF0FBECDBF95
:10569000CF91DF910895DF93CF930F92CDB7DEB70F
:1056A000898389E061E00E94B3258AE060E00E947E
:1056B000B325898182958F700E94802A0E94BE2A1C
:1056C00089810E94802A0E94BE2A0F90CF91DF918B
:1056D0000895DF93CF930F92CDB7DEB7898389E02A
:1056E00060E00E94B3258AE060E00E94B3258981D2
:1056F00082958F700E94802A0E94BE2A89810E9412
:10570000802A0E94BE2A0F90CF91DF910895DF93E7
:10571000CF93CDB7DEB72E970FB6F894DEBF0FBE8E
:10572000CDBF80E090E0A0E2B2E48B879C87AD879C
:10573000BE876B857C858D859E8520E030E04AE7BD
:1057400055E40E941F02DC01CB018F839887A98753
:10575000BA876F81788589859A8520E030E040E8B6
:105760005FE30E94250488232CF481E090E09E836F
:105770008D833FC06F81788589859A8520E03FEFD2
:105780004FE757E40E94C50318164CF56B857C85DE
:105790008D859E8520E030E040E251E40E941F02AA
:1057A000DC01CB01BC01CD010E944900DC01CB0131
:1057B0009E838D830FC080E991E09C838B838B81D6
:1057C0009C810197F1F79C838B838D819E8101974A
:1057D0009E838D838D819E81009769F714C06F81B0
:1057E000788589859A850E944900DC01CB019E83DA
:1057F0008D838D819E819A83898389819A81019786
:10580000F1F79A83898382E00E94802A0E94BE2A4F
:1058100082E00E94802A0E94BE2A88E00E94802A9C
:105820000E94BE2A8CE00E94692B81E00E94692BB5
:105830002E960FB6F894DEBF0FBECDBFCF91DF918D
:105840000895DF93CF9300D00F92CDB7DEB79B833F
:105850008A8319820EC08981282F30E08A819B813A
:10586000FC01E20FF31F80810E944B2B89818F5F27
:1058700089838981282F30E08A819B81FC01E20F96
:10588000F31F8081882339F70F900F900F90CF91ED
:10589000DF910895DF93CF9300D00F92CDB7DEB79D
:1058A0008A836B838B81882F90E00024969587955F
:1058B0000794969587950794982F802D982F8A8125
:1058C000890F898389818068898389810E94692BF6
:1058D0000F900F900F90CF91DF910895DF93CF93AA
:1058E000CDB7DEB727970FB6F894DEBF0FBECDBF9A
:1058F0008B837D836C834E832F831A828B81882FC9
:1059000090E0880F991F880F991F880F991F89832E
:1059100089818F77898389818064898389810E94C5
:10592000692B1A820EC08A81282F30E08C819D81DC
:10593000FC01E20FF31F80810E944B2B8A818F5F55
:105940008A838A81883078F38E816F810E944A2C05
:105950008B810E944B2B27960FB6F894DEBF0FBEAB
:10596000CDBFCF91DF9108950F931F93DF93CF9316
:10597000CDB7DEB72F970FB6F894DEBF0FBECDBF01
:105980006C877D878E879F8719828C859D85AE85E4
:10599000BF850097A105B10521F480E30E944B2B40
:1059A00051C0198230C08981082F112707FD109539
:1059B0008C859D85AE85BF852AE030E040E050E0D3
:1059C000BC01CD010E941F33DC01CB01282F205DDB
:1059D000CE010296FC01E00FF11F20838C859D858E
:1059E000AE85BF852AE030E040E050E0BC01CD014B
:1059F0000E941F33DA01C9018C879D87AE87BF875C
:105A000089818F5F89838C859D85AE85BF85009751
:105A1000A105B10541F689818150898310C0898132
:105A2000282F332727FD3095CE010296FC01E20F87
:105A3000F31F80810E944B2B89818150898389814A
:105A400088236CF72F960FB6F894DEBF0FBECDBF3C
:105A5000CF91DF911F910F910895DF93CF9300D0E5
:105A600000D0CDB7DEB789836A834B830E94A02420
:105A70000E94B024883019F081E08C8326C089818F
:105A8000882F90E0880F991F806A0E94BB240E9493
:105A9000B024883119F081E08C8317C08A810E947C
:105AA000BB240E94B024883219F081E08C830DC0A1
:105AB0008B810E94BB240E94B024883219F081E0BF
:105AC0008C8303C00E94D2241C828C810F900F9083
:105AD0000F900F90CF91DF910895DF93CF9300D077
